{
  "contractName": "OrderMaker",
  "abi": [
    {
      "constant": true,
      "inputs": [
        {
          "name": "",
          "type": "uint256"
        }
      ],
      "name": "ordersById",
      "outputs": [
        {
          "name": "itemName",
          "type": "string"
        },
        {
          "name": "price",
          "type": "uint256"
        },
        {
          "name": "quantity",
          "type": "uint256"
        }
      ],
      "payable": false,
      "stateMutability": "view",
      "type": "function",
      "signature": "0x2c4cb11a"
    },
    {
      "constant": true,
      "inputs": [
        {
          "name": "",
          "type": "address"
        }
      ],
      "name": "ordersByUser",
      "outputs": [
        {
          "name": "itemName",
          "type": "string"
        },
        {
          "name": "price",
          "type": "uint256"
        },
        {
          "name": "quantity",
          "type": "uint256"
        }
      ],
      "payable": false,
      "stateMutability": "view",
      "type": "function",
      "signature": "0x933f7ae8"
    },
    {
      "inputs": [],
      "payable": false,
      "stateMutability": "nonpayable",
      "type": "constructor",
      "signature": "constructor"
    },
    {
      "constant": false,
      "inputs": [
        {
          "name": "_itemName",
          "type": "string"
        },
        {
          "name": "_quantity",
          "type": "uint256"
        }
      ],
      "name": "createOrder",
      "outputs": [],
      "payable": true,
      "stateMutability": "payable",
      "type": "function",
      "signature": "0x97de706f"
    }
  ],
  "bytecode": "0x60806040523480156200001157600080fd5b50620000656040805190810160405280600981526020017f4a616c6170656e6f730000000000000000000000000000000000000000000000815250600c60056200006b640100000000026401000000009004565b6200034c565b600060606040519081016040528085815260200184815260200183815250908060018154018082558091505090600182039060005260206000209060030201600090919290919091506000820151816000019080519060200190620000d29291906200020f565b5060208201518160010155604082015181600201555050506000808054905090506000600182038154811015156200010657fe5b9060005260206000209060030201600160003373ffffffffffffffffffffffffffffffffffffffff1673ffffffffffffffffffffffffffffffffffffffff168152602001908152602001600020600082018160000190805460018160011615610100020316600290046200017c92919062000296565b506001820154816001015560028201548160020155905050600060018203815481101515620001a757fe5b90600052602060002090600302016002600083815260200190815260200160002060008201816000019080546001816001161561010002031660029004620001f192919062000296565b50600182015481600101556002820154816002015590505050505050565b828054600181600116156101000203166002900490600052602060002090601f016020900481019282601f106200025257805160ff191683800117855562000283565b8280016001018555821562000283579182015b828111156200028257825182559160200191906001019062000265565b5b50905062000292919062000324565b5090565b828054600181600116156101000203166002900490600052602060002090601f016020900481019282601f10620002d1578054855562000311565b828001600101855582156200031157600052602060002091601f016020900482015b8281111562000310578254825591600101919060010190620002f3565b5b50905062000320919062000324565b5090565b6200034991905b80821115620003455760008160009055506001016200032b565b5090565b90565b610a99806200035c6000396000f3fe608060405260043610610057576000357c0100000000000000000000000000000000000000000000000000000000900463ffffffff1680632c4cb11a1461005c578063933f7ae81461011e57806397de706f146101f6575b600080fd5b34801561006857600080fd5b506100956004803603602081101561007f57600080fd5b81019080803590602001909291905050506102bb565b6040518080602001848152602001838152602001828103825285818151815260200191508051906020019080838360005b838110156100e15780820151818401526020810190506100c6565b50505050905090810190601f16801561010e5780820380516001836020036101000a031916815260200191505b5094505050505060405180910390f35b34801561012a57600080fd5b5061016d6004803603602081101561014157600080fd5b81019080803573ffffffffffffffffffffffffffffffffffffffff16906020019092919050505061037d565b6040518080602001848152602001838152602001828103825285818151815260200191508051906020019080838360005b838110156101b957808201518184015260208101905061019e565b50505050905090810190601f1680156101e65780820380516001836020036101000a031916815260200191505b5094505050505060405180910390f35b6102b96004803603604081101561020c57600080fd5b810190808035906020019064010000000081111561022957600080fd5b82018360208201111561023b57600080fd5b8035906020019184600183028401116401000000008311171561025d57600080fd5b91908080601f016020809104026020016040519081016040528093929190818152602001838380828437600081840152601f19601f8201169050808301925050505050505091929192908035906020019092919050505061043f565b005b6002602052806000526040600020600091509050806000018054600181600116156101000203166002900480601f0160208091040260200160405190810160405280929190818152602001828054600181600116156101000203166002900480156103675780601f1061033c57610100808354040283529160200191610367565b820191906000526020600020905b81548152906001019060200180831161034a57829003601f168201915b5050505050908060010154908060020154905083565b6001602052806000526040600020600091509050806000018054600181600116156101000203166002900480601f0160208091040260200160405190810160405280929190818152602001828054600181600116156101000203166002900480156104295780601f106103fe57610100808354040283529160200191610429565b820191906000526020600020905b81548152906001019060200180831161040c57829003601f168201915b5050505050908060010154908060020154905083565b66038d7ea4c680003414151561045457600080fd5b600061045f83610471565b905061046c8383836107a5565b505050565b600060405160200180807f4a616c6170656e6f000000000000000000000000000000000000000000000000815250600801905060405160208183030381529060405280519060200120826040516020018082805190602001908083835b6020831015156104f357805182526020820191506020810190506020830392506104ce565b6001836020036101000a03801982511681845116808217855250505050505090500191505060405160208183030381529060405280519060200120141561053d57600990506107a0565b60405160200180807f4665746100000000000000000000000000000000000000000000000000000000815250600401905060405160208183030381529060405280519060200120826040516020018082805190602001908083835b6020831015156105bd5780518252602082019150602081019050602083039250610598565b6001836020036101000a03801982511681845116808217855250505050505090500191505060405160208183030381529060405280519060200120141561060757600c90506107a0565b60405160200180807f5761746572000000000000000000000000000000000000000000000000000000815250600501905060405160208183030381529060405280519060200120826040516020018082805190602001908083835b6020831015156106875780518252602082019150602081019050602083039250610662565b6001836020036101000a0380198251168184511680821785525050505050509050019150506040516020818303038152906040528051906020012014156106d157601290506107a0565b60405160200180807f4c656d6f6e000000000000000000000000000000000000000000000000000000815250600501905060405160208183030381529060405280519060200120826040516020018082805190602001908083835b602083101515610751578051825260208201915060208101905060208303925061072c565b6001836020036101000a03801982511681845116808217855250505050505090500191505060405160208183030381529060405280519060200120141561079b57600f90506107a0565b600590505b919050565b60006060604051908101604052808581526020018481526020018381525090806001815401808255809150509060018203906000526020600020906003020160009091929091909150600082015181600001908051906020019061080a929190610941565b50602082015181600101556040820151816002015550505060008080549050905060006001820381548110151561083d57fe5b9060005260206000209060030201600160003373ffffffffffffffffffffffffffffffffffffffff1673ffffffffffffffffffffffffffffffffffffffff168152602001908152602001600020600082018160000190805460018160011615610100020316600290046108b19291906109c1565b5060018201548160010155600282015481600201559050506000600182038154811015156108db57fe5b906000526020600020906003020160026000838152602001908152602001600020600082018160000190805460018160011615610100020316600290046109239291906109c1565b50600182015481600101556002820154816002015590505050505050565b828054600181600116156101000203166002900490600052602060002090601f016020900481019282601f1061098257805160ff19168380011785556109b0565b828001600101855582156109b0579182015b828111156109af578251825591602001919060010190610994565b5b5090506109bd9190610a48565b5090565b828054600181600116156101000203166002900490600052602060002090601f016020900481019282601f106109fa5780548555610a37565b82800160010185558215610a3757600052602060002091601f016020900482015b82811115610a36578254825591600101919060010190610a1b565b5b509050610a449190610a48565b5090565b610a6a91905b80821115610a66576000816000905550600101610a4e565b5090565b9056fea165627a7a72305820c5c02e37a5b548d5d5cab9b1f5b5354836960f400f166362a0c42cb8abaa8c730029",
  "source": "pragma solidity >=0.4.22 <0.9.0;\n\ncontract OrderMaker {\n  struct Order {\n    string itemName;\n    uint price;\n    uint quantity;\n  }\n\n  Order[] private orders;\n\n  constructor() public {\n    _createOrder('Jalapenos', 12, 5);\n  }\n\n  mapping(address => Order) public ordersByUser;\n  mapping(uint => Order) public ordersById;\n\n  function _createOrder(\n    string memory _itemName,\n    uint _quantity,\n    uint _price\n  ) internal {\n    orders.push(Order(_itemName, _quantity, _price));\n\n    uint id = orders.length;\n\n    ordersByUser[msg.sender] = orders[id - 1];\n    ordersById[id] = orders[id - 1];\n  }\n\n  function createOrder(string memory _itemName, uint _quantity) public payable {\n    require(msg.value == 0.001 ether);\n\n    uint itemPrice = _lookupPrice(_itemName);\n\n    _createOrder(_itemName, _quantity, itemPrice);\n  }\n\n  function _lookupPrice(string memory _itemName)\n    private\n    pure\n    returns (uint256 price)\n  {\n    if (\n      keccak256(abi.encodePacked(_itemName)) ==\n      keccak256(abi.encodePacked('Jalapeno'))\n    ) {\n      return 9;\n    } else if (\n      keccak256(abi.encodePacked(_itemName)) ==\n      keccak256(abi.encodePacked('Feta'))\n    ) {\n      return 12;\n    } else if (\n      keccak256(abi.encodePacked(_itemName)) ==\n      keccak256(abi.encodePacked('Water'))\n    ) {\n      return 18;\n    } else if (\n      keccak256(abi.encodePacked(_itemName)) ==\n      keccak256(abi.encodePacked('Lemon'))\n    ) {\n      return 15;\n    } else {\n      return 5;\n    }\n  }\n}\n",
  "sourcePath": "/Users/milecia/Repos/cascadia-dapp/web/contracts/OrderMaker.sol",
  "compiler": {
    "name": "solc",
    "version": "0.5.0+commit.1d4f565a.Emscripten.clang"
  },
  "schemaVersion": "3.0.1",
  "updatedAt": "2021-11-03T22:05:25.318Z",
  "devdoc": {
    "methods": {}
  },
  "userdoc": {
    "methods": {}
  }
}